:020000040000FA
:100000000E28A30106180830061C2403A400A3032D
:1000100003190034FF390319FF34022883168801BD
:100020000614051483160317081483160317091200
:10003000831203138316031300309F0083120313EC
:1000400041309F00A101A201A20B2428A10B24286A
:10005000803088000830A4009F149F182D281E0EA1
:100060000F39043EA0002008A1000830A2000120A2
:10007000003E03193F280808803C03192828A20BDA
:100080003728A10B35280310880C031C2C28880C5A
:020090002C281A
:02400E00C420CC
:02401000FF3E71
:00000001FF
