:020000040000FA
:020000001528C1
:080008002208A3001030A5003E
:100010002030A400A50B0A281030A500A40B0A2844
:100020002030A400A30B0A280800831603138801BC
:1000300083120313880183160313850105148316A5
:10004000031300309F008312031341309F001030D0
:10005000A200042083120313831203139F149F181A
:100060002F28831203131E08FC3983120313003E4A
:100070000319013EA0000314A00DA00303192C28AE
:10008000013003188030A1002008A2000318A20943
:100090000420210888001030A200042088010420D8
:0200A0002C280A
:02400E00C420CC
:02401000FF3E71
:00000001FF
