:020000040000FA
:020000001528C1
:080008002208A3008F30A500BF
:100010000F30A400A50B0A288F30A500A40B0A28D6
:100020000F30A400A30B0A280800831603138801CD
:1000300083120313880183160313850105148316A5
:10004000031300309F008312031341309F001030D0
:10005000A2000420831203139F149F182D288312DB
:1000600003131E0883120313FC309E0580309E028A
:1000700003192A28031C9E098030031801308800C8
:100080000630A200042088011E08863CA20004203D
:020090002A281C
:02400E00C420CC
:02401000FF3E71
:00000001FF
