:020000040000FA
:020000001528C1
:080008006030A0000130A300EC
:10001000A20B08284030A200A10B08284030A10004
:10002000A00B0828A30B12280800831603138801CD
:100030008312031388010130AA00AC00AE0008301F
:10004000A700A6012E080039A8002F08B439A9007E
:10005000A40110300310A80DA90D03080139A4074D
:10006000A50B2B28A40CAE0DAF0D031C4128552861
:10007000A60DA70B22280830A70026088800042018
:1000800022282A080239A8002B083839A900A4011F
:1000900010300310A80DA90D03080139A407A50B02
:1000A0004A28A40CAA0DAB0D38282C080039A8004A
:1000B0002D086039A900A40110300310A80DA90D66
:1000C00003080139A407A50B5E28A40CAC0DAD0DE7
:0200D0003828CE
:02400E00C420CC
:02401000FF3E71
:00000001FF
